{"abi":[{"type":"constructor","inputs":[{"name":"_voters","type":"address[]","internalType":"address[]"},{"name":"_requiredApprovals","type":"uint256","internalType":"uint256"}],"stateMutability":"nonpayable"},{"type":"receive","stateMutability":"payable"},{"type":"function","name":"addProposal","inputs":[{"name":"_to","type":"address","internalType":"address"},{"name":"_value","type":"uint256","internalType":"uint256"},{"name":"_data","type":"bytes","internalType":"bytes"}],"outputs":[],"stateMutability":"nonpayable"},{"type":"function","name":"getMessageHash","inputs":[{"name":"id","type":"uint256","internalType":"uint256"},{"name":"to","type":"address","internalType":"address"},{"name":"value","type":"uint256","internalType":"uint256"},{"name":"data","type":"bytes","internalType":"bytes"}],"outputs":[{"name":"","type":"bytes32","internalType":"bytes32"}],"stateMutability":"pure"},{"type":"function","name":"owner","inputs":[],"outputs":[{"name":"","type":"address","internalType":"address"}],"stateMutability":"view"},{"type":"function","name":"proposalCount","inputs":[],"outputs":[{"name":"","type":"uint256","internalType":"uint256"}],"stateMutability":"view"},{"type":"function","name":"proposals","inputs":[{"name":"","type":"uint256","internalType":"uint256"}],"outputs":[{"name":"id","type":"uint256","internalType":"uint256"},{"name":"to","type":"address","internalType":"address"},{"name":"value","type":"uint256","internalType":"uint256"},{"name":"data","type":"bytes","internalType":"bytes"},{"name":"approvals","type":"uint256","internalType":"uint256"},{"name":"executed","type":"bool","internalType":"bool"}],"stateMutability":"view"},{"type":"function","name":"requiredApprovals","inputs":[],"outputs":[{"name":"","type":"uint256","internalType":"uint256"}],"stateMutability":"view"},{"type":"function","name":"vote","inputs":[{"name":"id","type":"uint256","internalType":"uint256"},{"name":"signature","type":"bytes","internalType":"bytes"}],"outputs":[],"stateMutability":"nonpayable"},{"type":"function","name":"voters","inputs":[{"name":"","type":"address","internalType":"address"}],"outputs":[{"name":"","type":"bool","internalType":"bool"}],"stateMutability":"view"},{"type":"error","name":"ECDSAInvalidSignature","inputs":[]},{"type":"error","name":"ECDSAInvalidSignatureLength","inputs":[{"name":"length","type":"uint256","internalType":"uint256"}]},{"type":"error","name":"ECDSAInvalidSignatureS","inputs":[{"name":"s","type":"bytes32","internalType":"bytes32"}]}],"bytecode":{"object":"0x608060405234801561000f575f5ffd5b50604051611c9f380380611c9f8339818101604052810190610031919061033b565b8151811115610075576040517f08c379a000000000000000000000000000000000000000000000000000000000815260040161006c906103ef565b60405180910390fd5b335f5f6101000a81548173ffffffffffffffffffffffffffffffffffffffff021916908373ffffffffffffffffffffffffffffffffffffffff160217905550806002819055505f5f90505b825181101561014557600160035f8584815181106100e1576100e061040d565b5b602002602001015173ffffffffffffffffffffffffffffffffffffffff1673ffffffffffffffffffffffffffffffffffffffff1681526020019081526020015f205f6101000a81548160ff02191690831515021790555080806001019150506100c0565b50505061043a565b5f604051905090565b5f5ffd5b5f5ffd5b5f5ffd5b5f601f19601f8301169050919050565b7f4e487b71000000000000000000000000000000000000000000000000000000005f52604160045260245ffd5b6101a882610162565b810181811067ffffffffffffffff821117156101c7576101c6610172565b5b80604052505050565b5f6101d961014d565b90506101e5828261019f565b919050565b5f67ffffffffffffffff82111561020457610203610172565b5b602082029050602081019050919050565b5f5ffd5b5f73ffffffffffffffffffffffffffffffffffffffff82169050919050565b5f61024282610219565b9050919050565b61025281610238565b811461025c575f5ffd5b50565b5f8151905061026d81610249565b92915050565b5f610285610280846101ea565b6101d0565b905080838252602082019050602084028301858111156102a8576102a7610215565b5b835b818110156102d157806102bd888261025f565b8452602084019350506020810190506102aa565b5050509392505050565b5f82601f8301126102ef576102ee61015e565b5b81516102ff848260208601610273565b91505092915050565b5f819050919050565b61031a81610308565b8114610324575f5ffd5b50565b5f8151905061033581610311565b92915050565b5f5f6040838503121561035157610350610156565b5b5f83015167ffffffffffffffff81111561036e5761036d61015a565b5b61037a858286016102db565b925050602061038b85828601610327565b9150509250929050565b5f82825260208201905092915050565b7f546f6f206d616e7920617070726f76616c7320726571756972656400000000005f82015250565b5f6103d9601b83610395565b91506103e4826103a5565b602082019050919050565b5f6020820190508181035f830152610406816103cd565b9050919050565b7f4e487b71000000000000000000000000000000000000000000000000000000005f52603260045260245ffd5b611858806104475f395ff3fe60806040526004361061007e575f3560e01c806399c1aadc1161004d57806399c1aadc14610158578063a3ec138d14610182578063b88b82ba146101be578063da35c664146101e657610085565b8063013cf08b1461008957806330599cad146100ca5780636df95195146100f25780638da5cb5b1461012e57610085565b3661008557005b5f5ffd5b348015610094575f5ffd5b506100af60048036038101906100aa9190610c15565b610210565b6040516100c196959493929190610d18565b60405180910390f35b3480156100d5575f5ffd5b506100f060048036038101906100eb9190610ed4565b6102f9565b005b3480156100fd575f5ffd5b5061011860048036038101906101139190610f40565b610421565b6040516101259190610fd8565b60405180910390f35b348015610139575f5ffd5b50610142610459565b60405161014f9190610ff1565b60405180910390f35b348015610163575f5ffd5b5061016c61047d565b604051610179919061100a565b60405180910390f35b34801561018d575f5ffd5b506101a860048036038101906101a39190611023565b610483565b6040516101b5919061104e565b60405180910390f35b3480156101c9575f5ffd5b506101e460048036038101906101df9190611067565b6104a0565b005b3480156101f1575f5ffd5b506101fa61078b565b604051610207919061100a565b60405180910390f35b6004602052805f5260405f205f91509050805f015490806001015f9054906101000a900473ffffffffffffffffffffffffffffffffffffffff1690806002015490806003018054610260906110ee565b80601f016020809104026020016040519081016040528092919081815260200182805461028c906110ee565b80156102d75780601f106102ae576101008083540402835291602001916102d7565b820191905f5260205f20905b8154815290600101906020018083116102ba57829003601f168201915b505050505090806004015490806005015f9054906101000a900460ff16905086565b5f5f9054906101000a900473ffffffffffffffffffffffffffffffffffffffff1673ffffffffffffffffffffffffffffffffffffffff163373ffffffffffffffffffffffffffffffffffffffff1614610387576040517f08c379a000000000000000000000000000000000000000000000000000000000815260040161037e90611178565b60405180910390fd5b60015f815480929190610399906111c3565b91905055505f60045f60015481526020019081526020015f209050600154815f018190555083816001015f6101000a81548173ffffffffffffffffffffffffffffffffffffffff021916908373ffffffffffffffffffffffffffffffffffffffff1602179055508281600201819055508181600301908161041a91906113aa565b5050505050565b5f848484846040516020016104399493929190611518565b604051602081830303815290604052805190602001209050949350505050565b5f5f9054906101000a900473ffffffffffffffffffffffffffffffffffffffff1681565b60025481565b6003602052805f5260405f205f915054906101000a900460ff1681565b5f60045f8481526020019081526020015f209050806005015f9054906101000a900460ff1615610505576040517f08c379a00000000000000000000000000000000000000000000000000000000081526004016104fc906115ab565b60405180910390fd5b5f6105c384836001015f9054906101000a900473ffffffffffffffffffffffffffffffffffffffff168460020154856003018054610542906110ee565b80601f016020809104026020016040519081016040528092919081815260200182805461056e906110ee565b80156105b95780601f10610590576101008083540402835291602001916105b9565b820191905f5260205f20905b81548152906001019060200180831161059c57829003601f168201915b5050505050610421565b90505f6105cf82610791565b90505f6105e585836107c490919063ffffffff16565b905060035f8273ffffffffffffffffffffffffffffffffffffffff1673ffffffffffffffffffffffffffffffffffffffff1681526020019081526020015f205f9054906101000a900460ff16610670576040517f08c379a000000000000000000000000000000000000000000000000000000000815260040161066790611613565b60405180910390fd5b836006015f8273ffffffffffffffffffffffffffffffffffffffff1673ffffffffffffffffffffffffffffffffffffffff1681526020019081526020015f205f9054906101000a900460ff16156106fc576040517f08c379a00000000000000000000000000000000000000000000000000000000081526004016106f39061167b565b60405180910390fd5b6001846006015f8373ffffffffffffffffffffffffffffffffffffffff1673ffffffffffffffffffffffffffffffffffffffff1681526020019081526020015f205f6101000a81548160ff021916908315150217905550836004015f815480929190610767906111c3565b919050555060025484600401541061078357610782846107ee565b5b505050505050565b60015481565b5f7f19457468657265756d205369676e6564204d6573736167653a0a3332000000005f5281601c52603c5f209050919050565b5f5f5f5f6107d28686610933565b9250925092506107e28282610988565b82935050505092915050565b806005015f9054906101000a900460ff161561083f576040517f08c379a0000000000000000000000000000000000000000000000000000000008152600401610836906115ab565b60405180910390fd5b5f816001015f9054906101000a900473ffffffffffffffffffffffffffffffffffffffff1673ffffffffffffffffffffffffffffffffffffffff168260020154836003016040516108909190611719565b5f6040518083038185875af1925050503d805f81146108ca576040519150601f19603f3d011682016040523d82523d5f602084013e6108cf565b606091505b5050905080610913576040517f08c379a000000000000000000000000000000000000000000000000000000000815260040161090a90611779565b60405180910390fd5b6001826005015f6101000a81548160ff0219169083151502179055505050565b5f5f5f6041845103610973575f5f5f602087015192506040870151915060608701515f1a905061096588828585610aea565b955095509550505050610981565b5f600285515f1b9250925092505b9250925092565b5f600381111561099b5761099a611797565b5b8260038111156109ae576109ad611797565b5b0315610ae657600160038111156109c8576109c7611797565b5b8260038111156109db576109da611797565b5b03610a12576040517ff645eedf00000000000000000000000000000000000000000000000000000000815260040160405180910390fd5b60026003811115610a2657610a25611797565b5b826003811115610a3957610a38611797565b5b03610a7d57805f1c6040517ffce698f7000000000000000000000000000000000000000000000000000000008152600401610a74919061100a565b60405180910390fd5b600380811115610a9057610a8f611797565b5b826003811115610aa357610aa2611797565b5b03610ae557806040517fd78bce0c000000000000000000000000000000000000000000000000000000008152600401610adc9190610fd8565b60405180910390fd5b5b5050565b5f5f5f7f7fffffffffffffffffffffffffffffff5d576e7357a4501ddfe92f46681b20a0845f1c1115610b26575f600385925092509250610bc7565b5f6001888888886040515f8152602001604052604051610b4994939291906117df565b6020604051602081039080840390855afa158015610b69573d5f5f3e3d5ffd5b5050506020604051035190505f73ffffffffffffffffffffffffffffffffffffffff168173ffffffffffffffffffffffffffffffffffffffff1603610bba575f60015f5f1b93509350935050610bc7565b805f5f5f1b935093509350505b9450945094915050565b5f604051905090565b5f5ffd5b5f5ffd5b5f819050919050565b610bf481610be2565b8114610bfe575f5ffd5b50565b5f81359050610c0f81610beb565b92915050565b5f60208284031215610c2a57610c29610bda565b5b5f610c3784828501610c01565b91505092915050565b610c4981610be2565b82525050565b5f73ffffffffffffffffffffffffffffffffffffffff82169050919050565b5f610c7882610c4f565b9050919050565b610c8881610c6e565b82525050565b5f81519050919050565b5f82825260208201905092915050565b8281835e5f83830152505050565b5f601f19601f8301169050919050565b5f610cd082610c8e565b610cda8185610c98565b9350610cea818560208601610ca8565b610cf381610cb6565b840191505092915050565b5f8115159050919050565b610d1281610cfe565b82525050565b5f60c082019050610d2b5f830189610c40565b610d386020830188610c7f565b610d456040830187610c40565b8181036060830152610d578186610cc6565b9050610d666080830185610c40565b610d7360a0830184610d09565b979650505050505050565b610d8781610c6e565b8114610d91575f5ffd5b50565b5f81359050610da281610d7e565b92915050565b5f5ffd5b5f5ffd5b7f4e487b71000000000000000000000000000000000000000000000000000000005f52604160045260245ffd5b610de682610cb6565b810181811067ffffffffffffffff82111715610e0557610e04610db0565b5b80604052505050565b5f610e17610bd1565b9050610e238282610ddd565b919050565b5f67ffffffffffffffff821115610e4257610e41610db0565b5b610e4b82610cb6565b9050602081019050919050565b828183375f83830152505050565b5f610e78610e7384610e28565b610e0e565b905082815260208101848484011115610e9457610e93610dac565b5b610e9f848285610e58565b509392505050565b5f82601f830112610ebb57610eba610da8565b5b8135610ecb848260208601610e66565b91505092915050565b5f5f5f60608486031215610eeb57610eea610bda565b5b5f610ef886828701610d94565b9350506020610f0986828701610c01565b925050604084013567ffffffffffffffff811115610f2a57610f29610bde565b5b610f3686828701610ea7565b9150509250925092565b5f5f5f5f60808587031215610f5857610f57610bda565b5b5f610f6587828801610c01565b9450506020610f7687828801610d94565b9350506040610f8787828801610c01565b925050606085013567ffffffffffffffff811115610fa857610fa7610bde565b5b610fb487828801610ea7565b91505092959194509250565b5f819050919050565b610fd281610fc0565b82525050565b5f602082019050610feb5f830184610fc9565b92915050565b5f6020820190506110045f830184610c7f565b92915050565b5f60208201905061101d5f830184610c40565b92915050565b5f6020828403121561103857611037610bda565b5b5f61104584828501610d94565b91505092915050565b5f6020820190506110615f830184610d09565b92915050565b5f5f6040838503121561107d5761107c610bda565b5b5f61108a85828601610c01565b925050602083013567ffffffffffffffff8111156110ab576110aa610bde565b5b6110b785828601610ea7565b9150509250929050565b7f4e487b71000000000000000000000000000000000000000000000000000000005f52602260045260245ffd5b5f600282049050600182168061110557607f821691505b602082108103611118576111176110c1565b5b50919050565b5f82825260208201905092915050565b7f4f6e6c79206f776e6572000000000000000000000000000000000000000000005f82015250565b5f611162600a8361111e565b915061116d8261112e565b602082019050919050565b5f6020820190508181035f83015261118f81611156565b9050919050565b7f4e487b71000000000000000000000000000000000000000000000000000000005f52601160045260245ffd5b5f6111cd82610be2565b91507fffffffffffffffffffffffffffffffffffffffffffffffffffffffffffffffff82036111ff576111fe611196565b5b600182019050919050565b5f819050815f5260205f209050919050565b5f6020601f8301049050919050565b5f82821b905092915050565b5f600883026112667fffffffffffffffffffffffffffffffffffffffffffffffffffffffffffffffff8261122b565b611270868361122b565b95508019841693508086168417925050509392505050565b5f819050919050565b5f6112ab6112a66112a184610be2565b611288565b610be2565b9050919050565b5f819050919050565b6112c483611291565b6112d86112d0826112b2565b848454611237565b825550505050565b5f5f905090565b6112ef6112e0565b6112fa8184846112bb565b505050565b5b8181101561131d576113125f826112e7565b600181019050611300565b5050565b601f821115611362576113338161120a565b61133c8461121c565b8101602085101561134b578190505b61135f6113578561121c565b8301826112ff565b50505b505050565b5f82821c905092915050565b5f6113825f1984600802611367565b1980831691505092915050565b5f61139a8383611373565b9150826002028217905092915050565b6113b382610c8e565b67ffffffffffffffff8111156113cc576113cb610db0565b5b6113d682546110ee565b6113e1828285611321565b5f60209050601f831160018114611412575f8415611400578287015190505b61140a858261138f565b865550611471565b601f1984166114208661120a565b5f5b8281101561144757848901518255600182019150602085019450602081019050611422565b868310156114645784890151611460601f891682611373565b8355505b6001600288020188555050505b505050505050565b5f819050919050565b61149361148e82610be2565b611479565b82525050565b5f8160601b9050919050565b5f6114af82611499565b9050919050565b5f6114c0826114a5565b9050919050565b6114d86114d382610c6e565b6114b6565b82525050565b5f81905092915050565b5f6114f282610c8e565b6114fc81856114de565b935061150c818560208601610ca8565b80840191505092915050565b5f6115238287611482565b60208201915061153382866114c7565b6014820191506115438285611482565b60208201915061155382846114e8565b915081905095945050505050565b7f416c7265616479206578656375746564000000000000000000000000000000005f82015250565b5f61159560108361111e565b91506115a082611561565b602082019050919050565b5f6020820190508181035f8301526115c281611589565b9050919050565b7f4e6f7420617574686f72697a656420766f7465720000000000000000000000005f82015250565b5f6115fd60148361111e565b9150611608826115c9565b602082019050919050565b5f6020820190508181035f83015261162a816115f1565b9050919050565b7f416c7265616479207369676e65640000000000000000000000000000000000005f82015250565b5f611665600e8361111e565b915061167082611631565b602082019050919050565b5f6020820190508181035f83015261169281611659565b9050919050565b5f81546116a5816110ee565b6116af81866114de565b9450600182165f81146116c957600181146116de57611710565b60ff1983168652811515820286019350611710565b6116e78561120a565b5f5b83811015611708578154818901526001820191506020810190506116e9565b838801955050505b50505092915050565b5f6117248284611699565b915081905092915050565b7f5478206661696c656400000000000000000000000000000000000000000000005f82015250565b5f61176360098361111e565b915061176e8261172f565b602082019050919050565b5f6020820190508181035f83015261179081611757565b9050919050565b7f4e487b71000000000000000000000000000000000000000000000000000000005f52602160045260245ffd5b5f60ff82169050919050565b6117d9816117c4565b82525050565b5f6080820190506117f25f830187610fc9565b6117ff60208301866117d0565b61180c6040830185610fc9565b6118196060830184610fc9565b9594505050505056fea2646970667358221220e04532c85e6a98370d9be27f22c126b5a9ad823aed377db97fc102fb8748d6d964736f6c634300081d0033","linkReferences":{}},"methodIdentifiers":{"addProposal(address,uint256,bytes)":"30599cad","getMessageHash(uint256,address,uint256,bytes)":"6df95195","owner()":"8da5cb5b","proposalCount()":"da35c664","proposals(uint256)":"013cf08b","requiredApprovals()":"99c1aadc","vote(uint256,bytes)":"b88b82ba","voters(address)":"a3ec138d"},"id":7}