{"abi":[{"type":"constructor","inputs":[{"name":"initialVoters","type":"address[]","internalType":"address[]"}],"stateMutability":"nonpayable"},{"type":"function","name":"addProposal","inputs":[{"name":"_description","type":"string","internalType":"string"}],"outputs":[],"stateMutability":"nonpayable"},{"type":"function","name":"addVoter","inputs":[{"name":"_voter","type":"address","internalType":"address"}],"outputs":[],"stateMutability":"nonpayable"},{"type":"function","name":"getProposal","inputs":[{"name":"proposalId","type":"uint256","internalType":"uint256"}],"outputs":[{"name":"id","type":"uint256","internalType":"uint256"},{"name":"description","type":"string","internalType":"string"},{"name":"yesVotes","type":"uint256","internalType":"uint256"},{"name":"noVotes","type":"uint256","internalType":"uint256"},{"name":"createdAt","type":"uint256","internalType":"uint256"}],"stateMutability":"view"},{"type":"function","name":"isProposalPassed","inputs":[{"name":"proposalId","type":"uint256","internalType":"uint256"}],"outputs":[{"name":"passed","type":"bool","internalType":"bool"},{"name":"reason","type":"string","internalType":"string"}],"stateMutability":"view"},{"type":"function","name":"owner","inputs":[],"outputs":[{"name":"","type":"address","internalType":"address"}],"stateMutability":"view"},{"type":"function","name":"proposalCount","inputs":[],"outputs":[{"name":"","type":"uint256","internalType":"uint256"}],"stateMutability":"view"},{"type":"function","name":"removeVoter","inputs":[{"name":"_voter","type":"address","internalType":"address"}],"outputs":[],"stateMutability":"nonpayable"},{"type":"function","name":"vote","inputs":[{"name":"proposalId","type":"uint256","internalType":"uint256"},{"name":"voteYes","type":"bool","internalType":"bool"}],"outputs":[],"stateMutability":"nonpayable"},{"type":"function","name":"voters","inputs":[{"name":"","type":"address","internalType":"address"}],"outputs":[{"name":"","type":"bool","internalType":"bool"}],"stateMutability":"view"}],"bytecode":{"object":"0x60806040525f600155348015610013575f5ffd5b506040516116a73803806116a7833981810160405281019061003591906102c0565b335f5f6101000a81548173ffffffffffffffffffffffffffffffffffffffff021916908373ffffffffffffffffffffffffffffffffffffffff1602179055505f5f90505b81518110156100fe57600160025f84848151811061009a57610099610307565b5b602002602001015173ffffffffffffffffffffffffffffffffffffffff1673ffffffffffffffffffffffffffffffffffffffff1681526020019081526020015f205f6101000a81548160ff0219169083151502179055508080600101915050610079565b5050610334565b5f604051905090565b5f5ffd5b5f5ffd5b5f5ffd5b5f601f19601f8301169050919050565b7f4e487b71000000000000000000000000000000000000000000000000000000005f52604160045260245ffd5b6101608261011a565b810181811067ffffffffffffffff8211171561017f5761017e61012a565b5b80604052505050565b5f610191610105565b905061019d8282610157565b919050565b5f67ffffffffffffffff8211156101bc576101bb61012a565b5b602082029050602081019050919050565b5f5ffd5b5f73ffffffffffffffffffffffffffffffffffffffff82169050919050565b5f6101fa826101d1565b9050919050565b61020a816101f0565b8114610214575f5ffd5b50565b5f8151905061022581610201565b92915050565b5f61023d610238846101a2565b610188565b905080838252602082019050602084028301858111156102605761025f6101cd565b5b835b8181101561028957806102758882610217565b845260208401935050602081019050610262565b5050509392505050565b5f82601f8301126102a7576102a6610116565b5b81516102b784826020860161022b565b91505092915050565b5f602082840312156102d5576102d461010e565b5b5f82015167ffffffffffffffff8111156102f2576102f1610112565b5b6102fe84828501610293565b91505092915050565b7f4e487b71000000000000000000000000000000000000000000000000000000005f52603260045260245ffd5b611366806103415f395ff3fe608060405234801561000f575f5ffd5b5060043610610091575f3560e01c8063a3ec138d11610064578063a3ec138d1461011c578063c7f758a81461014c578063c9d27afe14610180578063da35c6641461019c578063f4ab9adf146101ba57610091565b80632fdae3c5146100955780636cd4f6da146100b157806386c1ff68146100e25780638da5cb5b146100fe575b5f5ffd5b6100af60048036038101906100aa9190610aba565b6101d6565b005b6100cb60048036038101906100c69190610b34565b6102d6565b6040516100d9929190610bd9565b60405180910390f35b6100fc60048036038101906100f79190610c61565b610425565b005b61010661050a565b6040516101139190610c9b565b60405180910390f35b61013660048036038101906101319190610c61565b61052e565b6040516101439190610cb4565b60405180910390f35b61016660048036038101906101619190610b34565b61054b565b604051610177959493929190610cdc565b60405180910390f35b61019a60048036038101906101959190610d5e565b61066a565b005b6101a4610881565b6040516101b19190610d9c565b60405180910390f35b6101d460048036038101906101cf9190610c61565b610887565b005b5f5f9054906101000a900473ffffffffffffffffffffffffffffffffffffffff1673ffffffffffffffffffffffffffffffffffffffff163373ffffffffffffffffffffffffffffffffffffffff1614610264576040517f08c379a000000000000000000000000000000000000000000000000000000000815260040161025b90610dff565b60405180910390fd5b60015f81548092919061027690610e4a565b91905055505f60035f60015481526020019081526020015f209050600154815f0181905550818160010190816102ac919061108e565b504281600401819055506001816005015f6101000a81548160ff0219169083151502179055505050565b5f60605f60035f8581526020019081526020015f209050806005015f9054906101000a900460ff1661033d576040517f08c379a0000000000000000000000000000000000000000000000000000000008152600401610334906111a7565b60405180910390fd5b61012c816004015461034f91906111c5565b421015610391576040517f08c379a000000000000000000000000000000000000000000000000000000000815260040161038890611242565b60405180910390fd5b8060030154816002015411156103e35760016040518060400160405280600f81526020017f50726f706f73616c2050617373656400000000000000000000000000000000008152509250925050610420565b5f6040518060400160405280601181526020017f50726f706f73616c2052656a656374656400000000000000000000000000000081525092509250505b915091565b5f5f9054906101000a900473ffffffffffffffffffffffffffffffffffffffff1673ffffffffffffffffffffffffffffffffffffffff163373ffffffffffffffffffffffffffffffffffffffff16146104b3576040517f08c379a00000000000000000000000000000000000000000000000000000000081526004016104aa90610dff565b60405180910390fd5b5f60025f8373ffffffffffffffffffffffffffffffffffffffff1673ffffffffffffffffffffffffffffffffffffffff1681526020019081526020015f205f6101000a81548160ff02191690831515021790555050565b5f5f9054906101000a900473ffffffffffffffffffffffffffffffffffffffff1681565b6002602052805f5260405f205f915054906101000a900460ff1681565b5f60605f5f5f5f60035f8881526020019081526020015f209050806005015f9054906101000a900460ff166105b5576040517f08c379a00000000000000000000000000000000000000000000000000000000081526004016105ac906111a7565b60405180910390fd5b805f0154816001018260020154836003015484600401548380546105d890610ebe565b80601f016020809104026020016040519081016040528092919081815260200182805461060490610ebe565b801561064f5780601f106106265761010080835404028352916020019161064f565b820191905f5260205f20905b81548152906001019060200180831161063257829003601f168201915b50505050509350955095509550955095505091939590929450565b60025f3373ffffffffffffffffffffffffffffffffffffffff1673ffffffffffffffffffffffffffffffffffffffff1681526020019081526020015f205f9054906101000a900460ff166106f3576040517f08c379a00000000000000000000000000000000000000000000000000000000081526004016106ea906112aa565b60405180910390fd5b5f60035f8481526020019081526020015f209050806005015f9054906101000a900460ff16610757576040517f08c379a000000000000000000000000000000000000000000000000000000000815260040161074e906111a7565b60405180910390fd5b806006015f3373ffffffffffffffffffffffffffffffffffffffff1673ffffffffffffffffffffffffffffffffffffffff1681526020019081526020015f205f9054906101000a900460ff16156107e3576040517f08c379a00000000000000000000000000000000000000000000000000000000081526004016107da90611312565b60405180910390fd5b8115610809576001816002015f8282546107fd91906111c5565b92505081905550610825565b6001816003015f82825461081d91906111c5565b925050819055505b6001816006015f3373ffffffffffffffffffffffffffffffffffffffff1673ffffffffffffffffffffffffffffffffffffffff1681526020019081526020015f205f6101000a81548160ff021916908315150217905550505050565b60015481565b5f5f9054906101000a900473ffffffffffffffffffffffffffffffffffffffff1673ffffffffffffffffffffffffffffffffffffffff163373ffffffffffffffffffffffffffffffffffffffff1614610915576040517f08c379a000000000000000000000000000000000000000000000000000000000815260040161090c90610dff565b60405180910390fd5b600160025f8373ffffffffffffffffffffffffffffffffffffffff1673ffffffffffffffffffffffffffffffffffffffff1681526020019081526020015f205f6101000a81548160ff02191690831515021790555050565b5f604051905090565b5f5ffd5b5f5ffd5b5f5ffd5b5f5ffd5b5f601f19601f8301169050919050565b7f4e487b71000000000000000000000000000000000000000000000000000000005f52604160045260245ffd5b6109cc82610986565b810181811067ffffffffffffffff821117156109eb576109ea610996565b5b80604052505050565b5f6109fd61096d565b9050610a0982826109c3565b919050565b5f67ffffffffffffffff821115610a2857610a27610996565b5b610a3182610986565b9050602081019050919050565b828183375f83830152505050565b5f610a5e610a5984610a0e565b6109f4565b905082815260208101848484011115610a7a57610a79610982565b5b610a85848285610a3e565b509392505050565b5f82601f830112610aa157610aa061097e565b5b8135610ab1848260208601610a4c565b91505092915050565b5f60208284031215610acf57610ace610976565b5b5f82013567ffffffffffffffff811115610aec57610aeb61097a565b5b610af884828501610a8d565b91505092915050565b5f819050919050565b610b1381610b01565b8114610b1d575f5ffd5b50565b5f81359050610b2e81610b0a565b92915050565b5f60208284031215610b4957610b48610976565b5b5f610b5684828501610b20565b91505092915050565b5f8115159050919050565b610b7381610b5f565b82525050565b5f81519050919050565b5f82825260208201905092915050565b8281835e5f83830152505050565b5f610bab82610b79565b610bb58185610b83565b9350610bc5818560208601610b93565b610bce81610986565b840191505092915050565b5f604082019050610bec5f830185610b6a565b8181036020830152610bfe8184610ba1565b90509392505050565b5f73ffffffffffffffffffffffffffffffffffffffff82169050919050565b5f610c3082610c07565b9050919050565b610c4081610c26565b8114610c4a575f5ffd5b50565b5f81359050610c5b81610c37565b92915050565b5f60208284031215610c7657610c75610976565b5b5f610c8384828501610c4d565b91505092915050565b610c9581610c26565b82525050565b5f602082019050610cae5f830184610c8c565b92915050565b5f602082019050610cc75f830184610b6a565b92915050565b610cd681610b01565b82525050565b5f60a082019050610cef5f830188610ccd565b8181036020830152610d018187610ba1565b9050610d106040830186610ccd565b610d1d6060830185610ccd565b610d2a6080830184610ccd565b9695505050505050565b610d3d81610b5f565b8114610d47575f5ffd5b50565b5f81359050610d5881610d34565b92915050565b5f5f60408385031215610d7457610d73610976565b5b5f610d8185828601610b20565b9250506020610d9285828601610d4a565b9150509250929050565b5f602082019050610daf5f830184610ccd565b92915050565b7f4f6e6c79206f776e65722063616e2063616c6c207468697300000000000000005f82015250565b5f610de9601883610b83565b9150610df482610db5565b602082019050919050565b5f6020820190508181035f830152610e1681610ddd565b9050919050565b7f4e487b71000000000000000000000000000000000000000000000000000000005f52601160045260245ffd5b5f610e5482610b01565b91507fffffffffffffffffffffffffffffffffffffffffffffffffffffffffffffffff8203610e8657610e85610e1d565b5b600182019050919050565b7f4e487b71000000000000000000000000000000000000000000000000000000005f52602260045260245ffd5b5f6002820490506001821680610ed557607f821691505b602082108103610ee857610ee7610e91565b5b50919050565b5f819050815f5260205f209050919050565b5f6020601f8301049050919050565b5f82821b905092915050565b5f60088302610f4a7fffffffffffffffffffffffffffffffffffffffffffffffffffffffffffffffff82610f0f565b610f548683610f0f565b95508019841693508086168417925050509392505050565b5f819050919050565b5f610f8f610f8a610f8584610b01565b610f6c565b610b01565b9050919050565b5f819050919050565b610fa883610f75565b610fbc610fb482610f96565b848454610f1b565b825550505050565b5f5f905090565b610fd3610fc4565b610fde818484610f9f565b505050565b5b8181101561100157610ff65f82610fcb565b600181019050610fe4565b5050565b601f8211156110465761101781610eee565b61102084610f00565b8101602085101561102f578190505b61104361103b85610f00565b830182610fe3565b50505b505050565b5f82821c905092915050565b5f6110665f198460080261104b565b1980831691505092915050565b5f61107e8383611057565b9150826002028217905092915050565b61109782610b79565b67ffffffffffffffff8111156110b0576110af610996565b5b6110ba8254610ebe565b6110c5828285611005565b5f60209050601f8311600181146110f6575f84156110e4578287015190505b6110ee8582611073565b865550611155565b601f19841661110486610eee565b5f5b8281101561112b57848901518255600182019150602085019450602081019050611106565b868310156111485784890151611144601f891682611057565b8355505b6001600288020188555050505b505050505050565b7f50726f706f73616c20646f6573206e6f742065786973740000000000000000005f82015250565b5f611191601783610b83565b915061119c8261115d565b602082019050919050565b5f6020820190508181035f8301526111be81611185565b9050919050565b5f6111cf82610b01565b91506111da83610b01565b92508282019050808211156111f2576111f1610e1d565b5b92915050565b7f546f6f206561726c7920746f20646563696465000000000000000000000000005f82015250565b5f61122c601383610b83565b9150611237826111f8565b602082019050919050565b5f6020820190508181035f83015261125981611220565b9050919050565b7f4e6f7420617574686f72697a656420766f7465720000000000000000000000005f82015250565b5f611294601483610b83565b915061129f82611260565b602082019050919050565b5f6020820190508181035f8301526112c181611288565b9050919050565b7f416c726561647920766f746564000000000000000000000000000000000000005f82015250565b5f6112fc600d83610b83565b9150611307826112c8565b602082019050919050565b5f6020820190508181035f830152611329816112f0565b905091905056fea26469706673582212206b69413128a8033f8c0a98e8c07b86861d6ac972a4784f0d3ebd4dfbfa0ff0e764736f6c634300081d0033","linkReferences":{}},"methodIdentifiers":{"addProposal(string)":"2fdae3c5","addVoter(address)":"f4ab9adf","getProposal(uint256)":"c7f758a8","isProposalPassed(uint256)":"6cd4f6da","owner()":"8da5cb5b","proposalCount()":"da35c664","removeVoter(address)":"86c1ff68","vote(uint256,bool)":"c9d27afe","voters(address)":"a3ec138d"},"id":0}